:020000042001D9
:100000006F4060072C000120FFFFFFFF1D2D2D2DED
:10001000204D6563726973702D5175696E747573C7
:1000200020312E302E30202D2D2D000040000120BB
:100030000000000006666C61736821006F30304C70
:1000400054000120000000000768666C617368219D
:100050006F30905B68000120200000000373704047
:10006000F11480C0268482807C00012020000000E2
:1000700003737021A284804091048280900001204B
:100080002000000003727040F11480C00A84828056
:10009000A400012020000000037270212281804012
:1000A00091048280B8000120610000000364757033
:1000B000F11480C082800000CC00012061000000AB
:1000C0000464726F7000804091048280E40001201B
:1000D00061000000043F6475700019C0F11480C015
:1000E00082800000FC000120620000000473776140
:1000F0007000A28780409CC0828000000C0101201B
:1001000062000000036E6970910482802401012066
:1001100062000000046F76657200F11480C0C04078
:10012000828000003C0101206200000004747563BD
:100130006B009C40F114C0C09CC08280540101201F
:100140004300000003726F749C40D84080C0DCC044
:100150003A8482807001012043000000042D726FF8
:1001600074009C40D84098C0C0C03E84828000008B
:100170008801012020000000047069636B000A04FC
:100180002694004082800000AC01012000000000A5
:10019000056465707468B707008093874726858F6C
:1001A000F11480C013D4274082800000D4010120C4
:1001B000000000000672646570746800B707008074
:1001C00093874746B3872740F11480C013D4274054
:1001D00082800000EC01012020000000023E72003D
:1001E000711122C08040910482800000040201202D
:1001F0002000000002723E00F11480C00244110190
:1002000082800000180201202000000002724000DD
:10021000F11480C0024482802C02012020000000E2
:10022000057264726F701101828000004402012027
:100230002000000005727069636B0A040A94004094
:10024000828000005C0201206100000002303D005D
:1002500013341400330480408280000070020120B7
:100260006100000003303C3E133414007D14828092
:10027000800201206100000002303C007D84828009
:100280009802012062000000023E3D009C40910463
:1002900033A487007D148280B00201206200000038
:1002A000023C3D009C4091043324F4007D14828084
:1002B000C802012062000000013C9C40910433A46C
:1002C0008700330480408280E00201206200000049
:1002D000013E9C4091043324F4003304804082802A
:1002E000F80201206200000003753E3D9C4091042D
:1002F00033B487007D148280100301206200000067
:1003000003753C3D9C4091043334F4007D1482809D
:100310002C0301206200000002753C009C40910407
:1003200033B48700330480408280000048030120FA
:100330006200000002753E009C4091043334F400DA
:1003400033048040828000006403012062000000CA
:10035000023C3E009C4091043D8C133414007D14FB
:10036000828000008003012062000000013D9C406B
:1003700091043D8C133414003304804082800000CB
:100380009803012062000000036D696E9C40910497
:100390006343F4003E848280B003012062000000C9
:1003A000036D61789C40910463C387003E84828022
:1003B000CC0301206200000004756D696E009C4052
:1003C00091046363F4003E8482800000E80301200E
:1003D0006200000004756D6178009C40910463E345
:1003E00087003E84828000004804012062020000F1
:1003F000012B9C4091043E94828037070400130730
:100400003741B707F40093873743711106C0611174
:100410003AC23EC0930700803377F4006303F700CD
:1004200011E75204924721015D8C11A8F11480C09C
:100430003D44EF00D07FF11480C00244210182408E
:1004400011016F1090080000640401206202000096
:10045000012D9C4091043384874082801344F4FF33
:10046000050461BF8C0401206202000003736C74F8
:100470009C40910433A4870082803727040013072F
:100480003741B727F4009387374341B7B8040120B9
:100490006202000004736C7475009C40910433B4D4
:1004A000870082803737040013073741B737F400DD
:1004B0009387374399BF0000C80401206100000002
:1004C00002312D007D148280D804012061000000DB
:1004D00002312B0005048280E80401206100000045
:1004E00002322D0079148280F8040120610000009E
:1004F00002322B00090482800C05012061000000FB
:100500000563656C6C2B11048280000024050120BA
:1005100061000000066E6567617465003304804009
:1005200082800000340501206100000003736872BE
:100530000580828044050120610000000373686C1F
:1005400006048280540501206100000002322A0066
:100550002294828068050120610000000563656CBB
:100560006C730A048280000078050120610000009D
:1005700002322F0005848280900501206100000076
:10058000036162739357F4413E943D8C8280000076
:10059000A805012061000000046576656E00937770
:1005A00014003E9482800000C805012081000000F4
:1005B000046261736500F11480C0374400807114D7
:1005C00082800A0000000000DC050120000000001D
:1005D0000662696E61727900894715A0F0050120F5
:1005E0000000000007646563696D616CA94701A89C
:1005F000080601200000000003686578C1473747FE
:10060000008071171CC382802806012000000000B2
:100610000565696E743FF11480C073240030218831
:10062000133414007D1482803C0601202000000059
:100630000465696E74007360043082805006012086
:10064000200000000464696E7400737004308280BE
:1006500064060120200000000377666973005010D3
:10066000828000008006012000000000066D6361AA
:1006700075736500F11480C07324203482800000FB
:100680009806012000000000046D65706300F114FD
:1006900080C0732410348280B00601200000000066
:1006A000036D6965F11480C07324403082800000BE
:1006B000C806012000000000036D6970F11480C0BD
:1006C0007324403482800000E00601200000000016
:1006D000046D69652100731044308040910482806C
:1006E000F806012000000000046D697021007310FD
:1006F00044348040910482802407012000000000DF
:10070000076D74696D653634F11480C037C7000217
:1007100061175C4300435843E39AE7FEF11480C03D
:100720003E84828054070120000000000863796342
:100730006C6573363400F11480C0F32700B873245D
:1007400000B0732700B8E39AE7FEF11480C03E843E
:1007500082800000740701200000000006637963B6
:100760006C657300F11480C037C700026117004345
:1007700082800000B40701200000000009756E6847
:10078000616E646C6564711106C0312714556E6822
:10079000616E646C656420496E7465727275707404
:1007A0002000C93DEF00B008FD2502210A0082406B
:1007B000110182804008012000000000056661757B
:1007C0006C74711106C0C12D14556E68616E646C35
:1007D000656420496E746572727570742000593DAD
:1007E000EF00F0044D2D036174205535EF00300407
:1007F0005D2502210A008240110182803AD63ED452
:1008000042D246D04ACE4ECC52CA56C85AC65EC410
:1008100062C266C083A00000E7800000824C124CD8
:10082000A24B324BC24A524AE2497249825812588C
:10083000A2573257C2501301410373002030000009
:1008400078080120810000000E6972712D636F6CC1
:100850006C656374696F6E00F11480C0374400806A
:1008600061148280C20701201301C1FC06D8B74081
:100870000080E11061B700009C08012081000000A9
:1008800009686F6F6B2D656D6974F11480C0374412
:10089000008051148280500A01200000C00801200D
:1008A0008100000008686F6F6B2D6B657900F11493
:1008B00080C03744008041148280840A01200000F7
:1008C000E4080120810000000A686F6F6B2D656DE0
:1008D00069743F00F11480C0374400803114828075
:1008E000BE0A0120080901208100000009686F6F1D
:1008F0006B2D6B65793FF11480C037440080211463
:100900008280F00A012000002C09012081000000F3
:100910000A686F6F6B2D706175736500F11480C08C
:100920003744008011148280380901203C090120DD
:1009300000000000036E6F708280000058090120E3
:100940000000000004656D697400B7470080D1178E
:100950009C43678007000000700901200000000030
:10096000036B6579B7470080C1179C436780070018
:100970008C0901200000000005656D69743FB747D0
:100980000080B1179C43678007000000A809012080
:1009900000000000046B65793F00B7470080A11795
:1009A0009C43678007000000140A0120000000003B
:1009B000057061757365B747008091179C43678028
:1009C00007003785001011050C41370600C0E39A77
:1009D000C5FE378500102105B7150700938515DF83
:1009E0000CC13725011013058503B70503000CC1A1
:1009F0003735011061059305A0080CC1373501108A
:100A0000210585450CC137350110310585450CC1DF
:100A1000828000003C0A0120810000000F73657293
:100A200069616C2D6C61737463686172F11480C0CC
:100A30003744008001148280FFFFFFFF700A01200D
:100A4000000000000B73657269616C2D656D69743F
:100A5000711106C0AD20A28780409104E5DF3737D1
:100A6000011000C380409104824011018280000087
:100A7000A80A0120000000000A73657269616C2DEC
:100A80006B657900711106C0A520A2878040910492
:100A9000E5DF374700800117F11480C00043FD57A0
:100AA0001CC3824011018280DC0A0120000000008A
:100AB0000C73657269616C2D656D69743F0071110D
:100AC00006C0D53DF11480C0B73701109C43FD87A7
:100AD00013C4F7FF8240110182800000280B01201F
:100AE000000000000B73657269616C2D6B65793FC6
:100AF000711106C0C935F11480C037470080011755
:100B00001C4313D4F74119C83737011011071C4390
:100B10003747008001171CC313D4F7411344F4FF77
:100B200082401101828000003C0B01200000000087
:100B30000572657365746F3000540000D80B012096
:100B4000000000000661636365707400411106C611
:100B50002AC42EC232C08C40910401462135228520
:100B6000804091049307F0076300F50493070002A7
:100B7000636DF500E37486FEF11480C02A84F133BE
:100B80002380A50085050506D1BFA5476315F5009F
:100B900013050002C5B7A9476308F502B547630509
:100BA000F502A147E31CF5FA55DAF52403082008FD
:100BB00055D6FD157D1603C5050093770508D9DFC9
:100BC00093770504C1FFEDB73284B24022459245C8
:100BD000024641017DA20000F40B0120400000000C
:100BE00003746962F11480C0370400801304444622
:100BF00082800000140C012081000000033E696E19
:100C0000F11480C0374400801304C4FD82800000CA
:100C100000000000440C0120820000000E63757289
:100C200072656E742D736F7572636500F11480C008
:100C300037440080130444FD8280000000006404F7
:100C4000008000006C0C0120000000000973657436
:100C5000736F75726365B7470080938747FD80C3E4
:100C600080409104C0C38040910482809C0C01208C
:100C70000000000006736F757263650071112AC071
:100C800037450080130545FDF11480C04041F11443
:100C900080C000410245110182800000D00C01207B
:100CA00000000000057175657279711106C0893FF9
:100CB00081471CC0804091043537F11480C0F11485
:100CC00080C01304800C59358240110169B70000BF
:100CD000400D01200000000007636F6D70617265B8
:100CE00051112AC42EC232C022858C40D04080448B
:100CF000B1046305C500130400002DA81DC903C677
:100D000005001337160411E71337B60519C3130688
:100D100006028347040013B7170411E713B7B7059A
:100D200019C393870702E318F6FC7D1585050504B2
:100D3000F1B77D5422459245024631018280000080
:100D40005C0D01200000000002637200711106C0FA
:100D50009922010A8240110182800000740D012055
:100D60000000000002626C00F11480C01304000255
:100D7000828000008C0D012000000000057370616E
:100D80006365F11480C013040002C1B6B40D0120E4
:100D9000000000000673706163657300711106C086
:100DA00001C4C5377D14EDBF80409104824011011C
:100DB00082800000C80D012050000000065B6368BF
:100DC00061725D0009A80000EC0D01200000000028
:100DD000046368617200711106C0C12180409104F2
:100DE000034404008240110182800000000E0120B3
:100DF000500000000128F11480C01304900209A8DB
:100E0000200E012050000000015CF11480C001445C
:100E1000711106C07929C040A1048240110182806D
:100E2000500E012030000000022E2200F11480C07C
:100E30001704000013046406711106C03927F11469
:100E400080C013042002B521824011016F001006FA
:100E50006C0E01203000000002632200F11480C0FB
:100E6000170400001304A405C1BF0000880E012070
:100E70003000000002732200F11480C0170400004B
:100E80001304240655BF0000AC0E01200000000032
:100E900004282E222900F11480C0068483C7000094
:100EA0008500BE9093F71000BE9045A0D00E0120A3
:100EB00000000000042863222900F11480C0068489
:100EC00083C700008500BE9093F71000BE9082801B
:100ED000F40E012000000000042873222900F11400
:100EE00080C0068483C700008500BE9093F7100081
:100EF000BE9075A03C0F01200000000004286E2267
:100F00002900611106C22AC083470400A5CF050449
:100F10003305F4008347040013D747002A9703479B
:100F20000700BD8BAA97E114C0C098C003C4070096
:100F3000293C213C0504E31FA4FCA9A0580F012073
:100F400000000000056374797065611106C22AC053
:100F500003450400050431A8900F012000000000A3
:100F6000047479706500611106C22AC02285804030
:100F7000910409C9F11480C003440400F932050446
:100F80007D156DF9804091049240024521018280D7
:100F9000AC0F01200000000005636F756E7405043E
:100FA000F11480C00344F4FF82800000D00F0120C0
:100FB000000000000A736B6970737472696E6700D9
:100FC0008347040005043E94937714003E94828086
:100FD000201001200000000006726973632D760066
:100FE000711106C04D3D324D6563726973702D51AC
:100FF00075696E74757320312E302E3020666F72D5
:1010000020524953432D56206279204D61747468F3
:10101000696173204B6F63680A008240110182800E
:101020006C10012000000000046865782E0041115A
:1010300006C62AC42EC232C0228580409104930580
:101040000002F11480C01354C5013D882946636332
:10105000C4001D0413040403CD381205F115F5F185
:10106000B240224592450246410121BBE0100120D9
:1010700000000000032E7273511106C42AC22EC054
:10108000193D0F52657475726E737461636B3A200B
:101090005B20B707008093874746B387274063C824
:1010A000070293D527008505F11480C02E844137AF
:1010B000DD33025D200081CD3705008013054546F4
:1010C000F11480C00041A5377115FD15F5F9E13324
:1010D00004202A3E0A00A240124582453101828046
:1010E000701101200000000005776F7264737111A8
:1010F00006C05533010AEF106000713B094164647A
:10110000726573733A20F11480C015376933064C49
:10111000696E6B3A2000F11480C00040093FA53B86
:1011200007466C6167733A20F11480C04040013774
:101130009D3306436F64653A2000F11480C021049A
:101140004135F535893B064E616D653A2000F11455
:1011500080C02104DD3B8133010AEF00B07DA2870E
:1011600080409104D9DB804091048240110182804B
:10117000B01101200000000006756E7573656400F3
:10118000711106C0EF00B021EF007042A2878040CD
:10119000910481E7B707402031A0EF009022A28799
:1011A0008040910433848740824011018280000096
:1011B000C81101200000000003682E73970700008B
:1011C000938727E705A80000E01101200000000038
:1011D000022E7300972700009387270321A80000A1
:1011E0008C1201200000000003752E739727000069
:1011F00093878700311106C82AC62EC432C236C072
:101200003E85513909537461636B3A205B2037473F
:10121000008071171443A9471CC3B705008093854C
:101220004526858D63CE05028981F11480C02E8408
:10123000EF10707D8D31025D2000374700807117FF
:1012400014C363CF050089CD370600801306062638
:10125000F11480C00042E70005007116FD15EDF99C
:101260001D390620544F533A2000F11480C02284C7
:10127000E70005000D3104202A3E0A00C240324535
:10128000A24512468246510182800000A41201202C
:101290000000000005746F6B656EF11480C01304CC
:1012A000000201A87C13012000000000057061729B
:1012B0007365411106C62AC42EC232C0C132A2854E
:1012C0008840C040A1042D3A10408040910433076B
:1012D000C50093070002631EF400638AC502B307CA
:1012E000C50083C707006396870005063307C5005E
:1012F000EDB7638EC500B307C50083C707000506B9
:10130000E39987FE3304C500198C7D1421A03304B2
:10131000C500198CF11498C0E53010C080409104CC
:10132000B24022459245024641018280611106C2C7
:101330002AC0228580409104856793870780E18FCA
:1013400099C385673E94F11480C0FD777D8C13644A
:10135000747BF11480C02A84EF00900F5204B78789
:101360000700938777465D8CF11480C02A841104AE
:101370009240024521016F00B00D0000BC13012016
:101380002000000005646F65733EF11480C0B7173C
:101390000120678487398280711106C0F11480C0F2
:1013A00037040080710400402104937724003E94A8
:1013B000B53FFD251101824011018280EC1301200F
:1013C00000000000073C6275696C6473711106C00F
:1013D000EF00F02D7D21992AEF003005F11480C037
:1013E0002144EF00901082401101828014140120EA
:1013F000000000000663726561746500711106C02B
:10140000F137F11480C0B717012067848739824013
:10141000110182800815012000000000107265672C
:1014200069737465726C69746572616C2C0019E083
:101430006F107070611106C22AC02285804091042D
:10144000930700803377F4006303F70031E3B707B5
:10145000001081173377F4006303F70005E39377F7
:10146000F4018A071357F4013207116405045D8CF7
:10147000598C1E05498CEF00300159A05204916728
:10148000CD0713177500D98F5D8CEF0010048DA860
:10149000856793870780E18F99C3FD773D8C8947E6
:1014A0006307F50281773377F4006303F70005E300
:1014B000F11480C0298485679387C7077D8C99675D
:1014C00085075D8C13177500598C7D2F19A8F114B1
:1014D00080C0FD777D8C1364740313177500598CDD
:1014E000ED27520401E48040910419A89167CD07CB
:1014F00013177500D98F1317F500D98F5D8CF1275D
:1015000092400245210182803C150120000000002C
:10151000086C69746572616C2C00711106C0392009
:10152000F11480C021448240110111B7F11480C030
:1015300017F4FFFF130404B861A80000C0150120D0
:10154000000000000563616C6C2C711106C0F11481
:1015500080C0B125EFE0FFEFEF106014A28780405C
:10156000910481CB9104896785075D8C82401101CC
:1015700021AFEF108006A2878040910481CB9104B7
:101580009307F00E5D8C8240110181A78040910489
:10159000856793870780E18F99C385673E94F1142F
:1015A00080C0FD777D8C1364747B05275204B78758
:1015B00007009387770E5D8C8240110139A70000E8
:1015C000601601200000000007696E6C696E652CD2
:1015D000511106C42AC22EC08357040005671307A1
:1015E00017176399E700835724003167190763933E
:1015F000E700110483570400116713072708639F4E
:10160000E70083572400130710116399E7008357FD
:101610004400216713072708638DE70283570400FE
:101620002167130727086386E7028357040013F72F
:10163000370075176318E000F11480C003540400EC
:10164000A1250904F11480C003540400352D0904B8
:1016500055B780409104A2401245824531018280F5
:101660009C160120000000000E736B6970646566B3
:10167000696E6974696F6E008357040013F7370051
:1016800075176309E00009042167130727086385BC
:10169000E700DDB71104CDB78280000010170120EC
:1016A0000000000007737472696E672C311106C860
:1016B0002AC62EC432C236C01375F40F8C40910472
:1016C000A920152009C9F11480C003C405002128F0
:1016D0007D158505C5BF0D20C2403245A245124685
:1016E0008246510182803314C400C18E804091042F
:1016F0002106C147631DF60009CA711106C0F11425
:1017000080C0368451238240110101468146828087
:101710002017012050000000035B275D39A0000066
:101720005C170120000000000127511106C42AC2E5
:101730002EC0A5368840A285EF00F024A287804005
:10174000910419E4F11480C088C02E846F10604A9F
:10175000A24012458245310182800000A417012079
:101760003000000008706F7374706F6E6500711147
:1017700006C0653F13F707011DE313F7070209CB06
:10178000693BF11480C0170400001304A4E401A80D
:101790006933F11480C017040000130444DB824055
:1017A000110165B3D8170120300000000465786985
:1017B0007400711106C0F11480C037441101130484
:1017C000240821238240110109A0F11480C0216462
:1017D0001304240855A90000F81701203000000068
:1017E0000772656375727365F11480C037040080F9
:1017F0007104004099BB000018180120810000000E
:10180000057374617465F11480C03744008013045B
:1018100004FD8280000000003818012081000000D3
:10182000042873702900F11480C037440080130429
:10183000C4FC828000000000481801200000000065
:10184000015DFD5701A80000601801201000000094
:10185000015B814737470080130707FD1CC3828067
:101860009018012000000000013A711106C03747AE
:1018700000801307C7FC04C31D2D212082401101E5
:10188000C9B7F11480C0371406C01304141735A962
:10189000D418012030000000013B711106C0374709
:1018A00000801307C7FC1C4363819702EFF0AFDE93
:1018B0001520537461636B206E6F742062616C61DC
:1018C0006E6365642E0A6F108046E535D12A82402A
:1018D000110141B7F018012000000000076578658C
:1018E00063757465A28780409104678007000000DB
:1018F0000C1901201000000009696D6D65646961B3
:101900007465F11480C0414409A400002819012025
:101910005000000006696E6C696E6500F11480C0AD
:1019200013040002DDA2000048190120100000008D
:101930000B636F6D70696C656F6E6C79F11480C0AC
:1019400013040003D9A20000681901205000000010
:101950000A302D666F6C6461626C6500F11480C0A2
:10196000130400045DA2000088190120500000004B
:101970000A312D666F6C6461626C6500F11480C081
:101980001304100459A20000A819012050000000FF
:101990000A322D666F6C6461626C6500F11480C060
:1019A000130420049DA20000C8190120500000006B
:1019B0000A332D666F6C6461626C6500F11480C03F
:1019C0001304300499A20000E8190120500000001F
:1019D0000A342D666F6C6461626C6500F11480C01E
:1019E000130440041DA20000081A0120500000004A
:1019F0000A352D666F6C6461626C6500F11480C0FD
:101A00001304500419A20000281A012050000000FD
:101A10000A362D666F6C6461626C6500F11480C0DB
:101A200013046004DDA00000481A012050000000EB
:101A30000A372D666F6C6461626C6500F11480C0BA
:101A400013047004D9A000006C1A012000000000EB
:101A500008636F6E7374616E7400711106C0812922
:101A60006D3CA533E53D824011011DA8901A01206F
:101A7000000000000932636F6E7374616E7471113F
:101A800006C03521A28780409CC0413CD1BF0000E8
:101A9000F81A01200000000006736D756467650088
:101AA000711106C059222126A28780409104A9E322
:101AB000FD208327C4FF1307F0FF80409104639645
:101AC000E700F11480C001440924F11480C03704F8
:101AD0000080130404020040F11480C03704008029
:101AE000210400401104EFE06FD582401101828093
:101AF000F11480C0014405A8701B01200000000003
:101B000008736574666C616773003757EA051307DD
:101B1000E71D63188700172400001304A45F6FF00B
:101B20004FBE711106C06124A2878040910489EFE5
:101B300037070080130707021C43C18F1CC3804076
:101B400091048240110182803707008021071843E9
:101B50005C4371112AC07D556393A700A287C18F92
:101B6000024511015CC380409104824011018280D2
:101B7000901B01204100000007616C69676E65647D
:101B8000937714003E94937724003E948280000063
:101B9000AC1B012000000000046865726500F114B0
:101BA00080C037040080004082800000D01B0120EC
:101BB000000000000D666C6173687661722D6865C7
:101BC0007265F11480C037040080410400408280B7
:101BD000F01B0120000000000C61646472696E66F5
:101BE0006C6173683F0037070120B707402039A8B0
:101BF0001C1C0120000000000A61646472696E729E
:101C0000616D3F0037070080B74700806366E400DE
:101C10006374F4007D548280014482807C1C012026
:101C20000000000005616C69676E711106C0853F98
:101C3000937714003E943707008000C3098801C4DD
:101C40000544992019A080409104824011018280AE
:101C5000711106C09C40E114C0C09CC01928A28725
:101C600080409CC04180A28780409CC00904824083
:101C70001101711106C0F11480C005A0C01C012023
:101C80000000000002682C00711106C0093FF11429
:101C900080C0F11480C009448928B137A2878040F0
:101CA000910481C7EFE0CFBA01A8A28780409104D8
:101CB00023908700804091048240110182800000BF
:101CC000DC1C012000000000012C711106C0F11481
:101CD00080C05D3F4180824011017DB75C1D0120C5
:101CE0000000000005616C6C6F74611106C22AC0AF
:101CF0002285804091046528A287804091049DE35D
:101D0000370700801C43AA973705402063EEA702DF
:101D1000EFF06F980B466C6173682066756C6C0A07
:101D20006F10E000793D370700801C43AA9763EBF2
:101D30008700EFF04F960952616D2066756C6C0A52
:101D40006F00F07E804091041CC392400245210147
:101D50008280F11480C0114449BF0000981D012009
:101D60000000000009666F7267657472616D711121
:101D700006C0952037070080B70700809387C752B9
:101D80001CC337070080210797E7FFFF9387C7270A
:101D90001CC3824011018280C01D01200000000090
:101DA0000D636F6D70696C65746F72616D3F711159
:101DB00006C0F5330D3D1344F4FF824011018280CB
:101DC000381E0120000000000C636F6D70696C65A7
:101DD000746F72616D00711106C0D13FA28780409F
:101DE0009104B5EF370700805C43184B63E6E702C8
:101DF000EFF06F8A23205661726961626C6573200F
:101E0000636F6C6C696465207769746820646963CA
:101E100074696F6E6172790AF11480C037040080B2
:101E200018405C4058C01CC018445C4458C41CC4D2
:101E300001448240110155BD641E012000000000D4
:101E40000E636F6D70696C65746F666C61736800AA
:101E5000711106C0A93FA28780409104D5FF82403E
:101E600011018280841E01204000000008286C615E
:101E7000746573742900F11480C037040080210454
:101E8000828000009C1E0120400000000428647035
:101E90002900F11480C0370400808280A01F012037
:101EA00000000000082863726561746529007111E3
:101EB00006C0EFF08FBE05E0EFE0FFFD1520437296
:101EC00065617465206E65656473206E616D652063
:101ED000210A6F00D0659C40E114C0C09CC06524FD
:101EE00080409104A2878040910495C39C40E114F6
:101EF000C0C09CC0EFE03FFA095265646566696E38
:101F00006520EFF04F86EFE01FF9022E2000313BF5
:101F1000793DA28780409104A1E73707008013072D
:101F2000070281471CC3A539F11480C02144753BC9
:101F3000EFE02FA3EFF08FF73705008021050C416C
:101F400090419306F0FF6319D600F11480C0F1149C
:101F500080C02E84EFE08F8E00C18040910435A0B8
:101F60003D39F11480C03704008021040040B13BAA
:101F700037070080210700C380409104F11480C01E
:101F80001304F0FF9933EFF06FF211393707008037
:101F9000710700C3804091048240110182800000DB
:101FA000BC1F012000000000087661726961626C4C
:101FB0006500F11480C005440DA80000D81F012061
:101FC0000000000009327661726961626C65F1148B
:101FD00080C0094419A800002C2001200000000046
:101FE000096E7661726961626C65511106C42AC21C
:101FF0002EC0753D6D3BA28780409104D5E33D889E
:10200000711122C00A048520EFF02FFC2285804048
:10201000910411C580C191054D39711565FDF1140B
:1020200080C0024411011364040825A8E4200120A3
:1020300000000000076275666665723A511106C4B9
:102040002AC22EC0353EA5359D33A287804091041B
:10205000ADE31128EFF06FF78D39F11480C0130450
:1020600000146534B1A83705008041050C41818D0D
:10207000370700801307C75263DEE500EFE0BFE1DA
:102080000F4E6F7420656E6F7567682052414D0A60
:102090006F00F0490CC1F11480C02E846FF0EFC7BF
:1020A0002D2022858040910419C505317D1575FDCF
:1020B00019A021281D39F11480C013040008B1347F
:1020C000A240124582453101E1BA711106C0B13E0C
:1020D000EFF0CFC5F11480C0216413047446824030
:1020E0001101E5B61C210120000000000F646963A6
:1020F00074696F6E6172797374617274711106C064
:102100007D318240110111E417E4FFFF1304C4EF95
:102110008280370400802104004082805421012005
:10212000000000000E64696374696F6E6172796EFD
:10213000657874009307F0FF1840E38CE71293076B
:10214000F00F03478700E386E7120040F11480C0D8
:1021500001448280782101208100000009686F6FAE
:102160006B2D66696E64F11480C0374400801304DF
:1021700084FC8280A4210120942101200000000021
:102180000466696E6400B7470080938787FC9C43B0
:10219000678007002C2201200000000006286669E5
:1021A0006E642900411106C62AC42EC232C0814580
:1021B0000146611122C0804022C2C040A1043D3FBF
:1021C0009307F0FF48406383A704F11480C0210403
:1021D000EFE0FFDCE114C0C0124480C00244EFE035
:1021E0003FB0A2878040910495C3F11480C02104C0
:1021F000EFE01FDDA285804091042A86F11480C0A3
:102200002E84D532A2878040910491C72537A287BA
:1022100080409104D5D72E84F11480C032842101EE
:10222000B24022459245024641018280402201206F
:1022300020000000016BF11480C022448280000065
:102240005422012020000000016AF11480C00244E1
:102250008280000068220120200000000169F11442
:1022600080C00E8482800000D02201203000000057
:10227000056C65617665511106C42AC22EC037050A
:10228000008061050C412687F1141C43232EF7FEC4
:102290001107E31CB7FE2687F1141C43232EF7FE1B
:1022A0001107E31CB7FEE5386D34228780409104A6
:1022B000F11598C1F11595479CC10CC183A7C5FFC5
:1022C000850723AEF5FEA24012458245310182808A
:1022D000E8220120200000000428646F2900611119
:1022E00012C20EC0828000000023012020000000E6
:1022F00006756E6C6F6F7000824112422101828000
:102300006423012030000000052B6C6F6F708D4737
:10231000631DF44680409104611106C22AC0F11485
:1023200080C01704000013046401EFF00FA237858A
:102330000700130535068DA0634C04003387414028
:10234000A29180409104B3874140B3B7E7008280F7
:1023500033874140A29180409104B3874140B33715
:10236000F7008280D823012030000000046C6F6FDA
:1023700070008D47631BF44080409104611106C2D8
:102380002AC0F11480C03784110013043419353A7F
:1023900037954100130535061930EFE08F8B092C76
:1023A000498C253222858040910401C5592E7D1526
:1023B000EDBFF11480C017040000130424F4EFF003
:1023C0002FA137070080610700C38040910492402D
:1023D00002452101828000003024012030000000ED
:1023E00002646F00711106C01D203707008061076D
:1023F000F11480C00043F11480C0014404C3EFF025
:102400000FFAF11480C00D44824011018280F11452
:1024100080C0170400001304C4006FF06F9B6111AB
:1024200012C20EC0A28103A20400C040A104828097
:102430007824012030000000033F646F711106C052
:10244000F937F11480C0378441401304347BB53828
:10245000370700806107F11480C00043EFF02FF4CC
:10246000CD38F11480C00944F11480C00544370709
:102470000080610704C361B794240120300000008C
:10248000046361736500F11480C00144F11480C0DD
:1024900021448280BC24012030000000033F6F668D
:1024A000A1476314F42E80409104711106C071118C
:1024B00022C080409104392E89A0000020250120EF
:1024C00030000000026F6600A1476310F42C8040CA
:1024D0009104711106C0711122C080409104F11461
:1024E00080C01704000013040403EFF06F8EEFF0B8
:1024F0000FEB8530F11480C009442D24F11480C005
:10250000024411010504F11480C0254482401101E8
:102510008280A28780409104818F93B717008280C8
:102520005C2501203000000005656E646F66A547DC
:10253000631DF42480409104711106C0711122C002
:10254000804091048D2CF11480C002441101F114DB
:1025500080C021448240110182800000C4250120F6
:102560003000000007656E6463617365A147631EF8
:10257000F42080409104611106C22AC02285804067
:1025800091044D2201C5752A7D15EDBF924002458B
:1025900021018280EFE03F900D4A756D7020746FCD
:1025A0006F206661720A61A7711106C03D2021A0EB
:1025B000711106C0A928A28780409104E1DF824002
:1025C00011018280F8250120410000000C756A2D60
:1025D000656E636F64696E673F00B707F8FF337716
:1025E000F4006304F7006312074A711106C02D2836
:1025F00082401101BDA90000882601204100000091
:102600000C73622D656E636F64696E673F00FD77C2
:102610003377F4006304F70063190746711106C0AD
:10262000252882401101B1A19357C40093F7F70FF9
:102630001397C7009357B400858BD2075D8F9357CC
:10264000140093F7F73FD6075D8F93574401858BAE
:10265000FE073364F70082809357B400858B13978D
:10266000770093571400BD8BA2075D8F93575400DA
:1026700093F7F703E6075D8F9357C400858BFE073A
:102680003364F700828000003427012041000000FD
:102690000C636A2D656E636F64696E673F00930714
:1026A00000803377F4006304F7006310073E711174
:1026B00006C02120824011016DAE93575400858BD6
:1026C00013972700935714009D8B8E075D8F9357A8
:1026D0007400858B9A075D8F93576400858B9E07E6
:1026E0005D8F9357A400858BA2075D8F935784005D
:1026F0008D8BA6075D8F93574400858BAE075D8F4A
:102700009357B400858BB2073364F7008280711150
:1027100006C0F11480C021641304247AEFF0CFD6F0
:1027200082401101F11480C017E4FFFF1304E49903
:102730006FE01FEAA82701203000000004746865DC
:102740006E00711106C0A287804091041547639AFC
:10275000E700EFF0CFC49C401D8CB9351364F4063C
:1027600031A809476393E702EFF06FC39C401D8CCB
:102770008135B7870700938737065D8CA287804035
:102780009CC0824011016FF0AFCCEFE0CFF0175347
:1027900074727563747572657320646F6E2774202C
:1027A0006D617463680A61A3C827012030000000CE
:1027B00004656C736500711106C03528EF00F038B0
:1027C00082401101BDBF0000E82701203000000059
:1027D00002696600711106C01D3FEFF04FBCF11495
:1027E00080C0094405A0000010280120300000002E
:1027F000056168656164711106C0EFF04FBAF114AC
:1028000080C01544EFF0EFD48240110182800000B7
:102810002C2801203000000006726570656174008C
:10282000711106C0AD208240110121BF482801204E
:1028300030000000057768696C65711106C0593F6A
:10284000824011016F0070308028012030000000AC
:1028500005756E74696C711106C0A2878040910481
:102860000547E394E7F26535EFF06FB3EFD07FBE35
:102870008133B7870700938737065D8C05A8000072
:10288000B42801203000000005616761696E711194
:1028900006C0A287804091040547E398E7EEEFF079
:1028A0000FB0EFD01FBB09331364F406824011014F
:1028B0006FF0AFC1D82801203000000005626567C5
:1028C000696E711106C0EFF08FADF11480C0054440
:1028D0008240110182800000002901206202000074
:1028E00003616E649C4091047D8C82803777040084
:1028F00013073741B777F400938737436FD0FFB0A2
:102900002029012062020000036269639C40910457
:102910001344F4FF7D8C82801344F4FFC1BF000098
:102920004829012062020000026F72009C4091045D
:102930005D8C82803767040013073741B767F40066
:10294000938737436FD07FAC70290120620200006B
:1029500003786F729C4091043D8C8280374704005D
:1029600013073741B747F400938737436FD0FFA968
:10297000942901204100000003636C7A9307000250
:1029800019C481476345040006048507E5BF3E84FA
:1029900082800000AC2901206100000003726F7288
:1029A0009317F40105805D8C82800000C42901200A
:1029B0006100000003726F6C9357F40106045D8C94
:1029C00082800000E8290120620200000761727322
:1029D000686966749C40910433D487408280B757FD
:1029E000044093873741A1A00C2A01206202000015
:1029F00006727368696674009C40910433D4870042
:102A00008280B75704009387374115A0382A0120E8
:102A100062020000066C7368696674009C40910451
:102A2000339487008280B7170400938737417D88ED
:102A300052045D8C6FF06FA94C2A012061000000E8
:102A4000036E6F741344F4FF82800000642A012037
:102A50006100000006696E76657274001344F4FF2D
:102A6000828000007C2A01206000000004747275DE
:102A70006500F11480C07D5482800000942A0120FA
:102A8000600000000566616C7365F11480C001444C
:102A900082800000F82A01200000000008657661AD
:102AA0006C7561746500711106C0EFE02F9DA287FF
:102AB0009840C040A10461113AC23EC0374700802F
:102AC0001307C7FD1C4371113EC081471CC3EFE0D3
:102AD0008F989520374700801307C7FD8247110163
:102AE0001CC3824712472101E114C0C098C03E8434
:102AF000824011016FE02F96242B012081000000FD
:102B00000E686F6F6B2D696E7465727072657400FC
:102B1000F11480C037440080130444FC8280582B99
:102B200001200000442B01200000000009696E74A0
:102B3000657270726574B7470080938747FC9C4349
:102B400067800700FC2C0120000000000B28696E44
:102B50007465727072657429711106C03705008042
:102B600013054526637E9500EFE0EFB210537461C4
:102B7000636B20756E646572666C6F770A0045AA98
:102B80003705008013054506636D9500EFE0AFB093
:102B90000F537461636B206F766572666C6F770A92
:102BA00079A237070080510783230700639503004C
:102BB000A68323207700EFE04FEE11E4C040A1048C
:102BC0008240110182809C40E114C0C09CC0EFF0A3
:102BD0008FDBA2859040C040A10405EA8840A28511
:102BE000052C22868040910435FAE114C0C088C0CB
:102BF0002E84EFE04FB7EFE00FAA0C206E6F742029
:102C0000666F756E642E0A001DA2B746008093861B
:102C100006FD9442A1E63707008051078143232037
:102C2000770093070003B3F6F5006391F602EFE037
:102C30008FB3EFE04FA61220697320636F6D706948
:102C40006C652D6F6E6C792E0A00D5A0C040A10472
:102C5000F11480C03284EFE0FFC809B7C040A1047E
:102C600013F5050819E9B3869340898213F5050425
:102C700019C913F5F50063E8A600F11480C0328489
:102C8000EFE05FC6E1BD13B51600631DA00013F5AC
:102C9000052009C9F11480C03284EFE0FF9DEFE008
:102CA0007FC46DBD1D20F11480C0328413F6050170
:102CB00001C6EFE03FC35DB513F6050201C6EFE0C4
:102CC0003F9169BDEFE07F8851BD711106C091CE83
:102CD000FD16F11480C03684EFD06FCAEFE0FF8399
:102CE000E5FA9384C3FF80409104370700805107C1
:102CF000814323207700824011018280202D012012
:102D00008100000009686F6F6B2D71756974F11493
:102D100080C037440080130404FC8280982D012079
:102D2000882D0120000000000471756974003701CE
:102D3000008013014146B70400809384442637473E
:102D400000807117A9471CC337470080130707FD90
:102D500081471CC33707008051071CC337470080D9
:102D60001307C7FD1CC337470080130747FD1CC36B
:102D7000B7070080938747465CC3B74700809387B7
:102D800007FC9C4367800700AC2D01200000000079
:102D90000628717569742900EFD03FF1693BEFE0B7
:102DA0008F8F05206F6B2E0AC5BF0000002E0120FB
:102DB00000000000056469676974130404FD63641E
:102DC0000402A9476363F4026514636EF400930779
:102DD0004002636CF4000114A9476366F400930792
:102DE00040026364F40001448280B7470080F11719
:102DF0009C43E37AF4FEF11480C07D54828000008D
:102E0000802F012000000000066E756D6265720063
:102E1000111106CC16CA1AC82AC62EC432C236C030
:102E2000B7470080F1179C4371113EC0A2858040D6
:102E3000910422850544854681420143D5C5034658
:102E400005000505FD159307D0026314F600FD5635
:102E5000F5B7930730026318F600A947374600809C
:102E600071161CC2E1BF930740026318F600C14708
:102E70003746008071161CC2D1B793075002631801
:102E8000F60089473746008071161CC245BF93077C
:102E9000E0026314F600094455B79307C002630CBF
:102EA000F608F11480C03284093FA2878040910463
:102EB000BDC3E114C0C023A054001A84F11480C023
:102EC0003744008071140040F11480C00144C925CA
:102ED000EFD08FA7F11480C001449D2D228383A2DF
:102EE0000400C040A10499BF634DD000E114C0C0EC
:102EF00023A054001A841925228383A20400C04011
:102F0000A104F11423A0540085476305F400F114D3
:102F100023A0640011A001448247110137470080BB
:102F200071171CC3E240D24242433245A2451246C9
:102F3000824671018280168381420944D5D5FD15F0
:102F4000B307B50003C607009307E002E308F6FEE7
:102F5000F11480C032849535A28780409104C5DF8A
:102F6000F11423A05400F11480C037440080711480
:102F70000040EF003005A282C040A104C1B70000AC
:102F8000B02F012000000000062E646967697400FC
:102F9000A9476375F4001304040382809307400279
:102FA0006375F4001304740382801304300282807A
:102FB000043001200000000004686F6C640071118F
:102FC0002AC0370500801305450203470500930713
:102FD000F0036374F70205072300E5003A9585477F
:102FE000630BF7007D1583470500A300F5007D17EF
:102FF0008547E319F7FE23008500804091040245D0
:1030000011018280403001200000000005686F6CD3
:10301000643C71112AC0370500801305450203473F
:1030200005009307F0036378F70005072300E50028
:103030003A95230085008040910402451101828069
:103040006030012000000000047369676E00634572
:1030500004008040910482801304D0028DB70000E8
:10306000803001200000000002233E00B7070080EE
:103070009387470203C4070085079CC08280000035
:10308000A43001200000000003662353611106C232
:103090002AC01305000229287D1575FD92400245BE
:1030A00021018280CC300120000000000266230054
:1030B000711106C0F11480C03744008071140040C3
:1030C000512AF93582401101A9B70000EC300120E6
:1030D0000000000002235300711106C029287DFC66
:1030E0009C40EDFF82401101828000001C310120D4
:1030F000000000000123711106C0F11480C03744A4
:10310000008071140040F11480C00144312F352C2F
:1031100080409104B53D8240110155B53831012000
:1031200000000000023C230037070080130747021D
:1031300081472300F7008280503101200000000009
:1031400002662E00F11480C01304000201A80000E2
:10315000A03101200000000003662E6E611106C23E
:103160002AC0228580409104EFC0BFFCAD2EF1142F
:1031700080C00144553F8D37804091041304C00244
:10318000493D01C535377D1575FD0245110180406A
:103190009104753DF11480C0F11480C035A8000081
:1031A000B8310120000000000375642E711106C0C3
:1031B000A53F1D3715A00000E831012000000000E8
:1031C00002642E00711106C0EFC0BFF6292EA93F80
:1031D0002137EFC07FF7A53D513DEFD0DFD88240CA
:1031E00011016FD01FBA0000FC3101200000000067
:1031F00002752E00F11480C001444DBF1032012031
:1032000000000000012EF11480C07D8465BF000025
:103210004832012062020000012A9C40910433845C
:1032200087028280B707F40293873743711106C083
:10323000F1149CC0F11480C03D44EFE04F9F8240E8
:1032400011016FE09FA800006432012062000000BD
:1032500003756D2A9C403387870298C033B4870278
:10326000828000008032012062000000026D2A008E
:103270009C403387870298C0339487028280000085
:103280009832012062000000066D756C687375004D
:103290009C4033A487028280B83201206202000081
:1032A000012F9C40910433C487028280B747F40207
:1032B00093873743A5BF0000D83201206202000087
:1032C000036D6F649C40910433E487028280B7678A
:1032D000F4029387374399BFF43201206200000063
:1032E00005752F6D6F649C4033F7870298C033D407
:1032F000870282801033012062000000042F6D6F6E
:1033000064009C4033E7870298C033C48702828000
:1033100028330120620000000432647570009C4074
:10332000E114C0C09CC082803C33012062000000D8
:10333000053264726F70C040A10482805C3301204A
:1033400044000000053273776170A287C040DCC082
:103350009C4098449CC498C0828000007433012033
:103360006200000004326E6970009C40A1049CC0A1
:1033700082800000903301204400000005326F7607
:103380006572E114C0C09C489CC0C04482800000AB
:10339000B43301204400000005327475636B98401B
:1033A0009C44E11498C098C8D844D8C09CC4C0C4F8
:1033B00082800000D8330120460000000432726F82
:1033C00074009C4098449CC49C4898C89CC0D840B9
:1033D000C0C0C044D8C48280FC3301204600000035
:1033E00005322D726F7498409C4898C8984498C0D4
:1033F0009CC4D844C0C4C040D8C0828018340120C6
:103400002000000003323E72611122C0804022C2BF
:10341000C040A1048280000034340120200000005C
:103420000332723EE114C0C0124480C00244210144
:10343000828000004C3401202000000003327240E2
:10344000E114C0C0124480C0024482806034012074
:103450002000000006327264726F700021018280C9
:103460007C340120420000000364322F9C4013177B
:10347000F40105848583D98F9CC082809834012013
:10348000420000000364322A9C4013D7F701BE9724
:103490002294598C9CC08280B834012042000000E4
:1034A0000464736872009C401317F40105808583DF
:1034B000D98F9CC082800000D834012042000000D7
:1034C000046473686C009C4013D7F701BE97229484
:1034D000598C9CC082800000EC3401204200000026
:1034E000046461627300634B040082801435012020
:1034F0004200000007646E65676174659C4093C775
:10350000F7FF1344F4FF1387170098C0B337F70091
:103510003E948280443501204400000002642D0066
:1035200071112AC09C4498403385E74088C433B564
:10353000E700DC4033848740098CA1040245110177
:1035400082800000703501204400000002642B00DE
:1035500071112AC09C4498403385E70088C43335F4
:10356000F500DC403E942A94A104024511018280BA
:10357000843501204100000003733E64F11480C0D3
:103580007D848280A0350120440000000375642AF8
:10359000711106C02928C040A10482401101828017
:1035A00004370120440000000475646D2A000111F5
:1035B00006CE16CC1ACA1EC82AC62EC432C236C0BF
:1035C000F11480C0C040F11480C080486131A285F0
:1035D0008840C040A104F11480C08040F11480C034
:1035E000C0448D39A2869040C040A104F11480C02F
:1035F0008040F11480C08048B1398147B302860011
:1036000033B3C2003386F200B3335600B36773009E
:10361000B382060033B3D200B386F200B3B35600D0
:10362000B3677300804091048147B382850033B350
:10363000B200B385F200B3B35500B3677300B302B1
:10364000060033B3C2003386F200B3335600B367CB
:103650007300B382060033B3D200B386F200B3B373
:103660005600B367730080409104F11480C0C040DD
:10367000F11480C0C044F93E8147B302860033B3E1
:10368000C2003386F200B3335600B3677300B382CF
:10369000060033B3D200B386F200B3B35600B3676B
:1036A0007300804091048147B382850033B3B20038
:1036B000B385F200B3B35500B3677300B3020600DD
:1036C00033B3C2003386F200B3335600B3677300DE
:1036D000B382060033B3D200B386F200B3B3560010
:1036E000B367730080409104368490C0CCC088C416
:1036F000F240E2425243C2433245A245124682465C
:10370000056182803037012043000000022A2F002B
:10371000711106C0711122C080409104913EF114D4
:1037200080C002441101D1209104824011018280A5
:103730005C37012043000000052A2F6D6F64711172
:1037400006C0711122C0804091041D36F11480C062
:10375000024411018240110149A80000883701206C
:103760004300000003752A2F711106C0711122C099
:1037700080409104C534F11480C0024411019920A5
:103780009104824011018280B4370120430000007F
:1037900006752A2F6D6F6400711106C0711122C069
:1037A00080409104453CF11480C0024411018240E4
:1037B000110109A8DC3701204300000006756D2FB8
:1037C0006D6F6400711106C0F11480C00144A92816
:1037D00080409104910482401101828018380120B8
:1037E00043000000056D2F6D6F64711106C0F11468
:1037F00080C07D84CD2080409104910482401101DD
:10380000828041112AC62EC432C236C08146D040C1
:103810008C4401451DA00000C83801204400000070
:103820000675642F6D6F640041112AC62EC432C222
:1038300036C081460146CC40884431110EC812C6BC
:1038400016C41AC21EC0228283A1040013040004FD
:1038500086069357F601DD8E060693D7F5015D8E39
:1038600086059357F501DD8D06056366D20063EA90
:103870004602636836028147B3023640333336006E
:103880003386F240B3B3F200B3677300B3824640AD
:1038900033B34600B386F240B3B3F200B3677300AC
:1038A00005057D1455F42E8488C0D4C090C4C2414F
:1038B0003242A2421243824351013245A24512468E
:1038C000824641018280000020390120440000002E
:1038D00005642F6D6F64711106C06353040239399A
:1038E000AD34635A040019398D343D3FB93C393148
:1038F0008240110199BC913C053F82401101FDBEFF
:10390000A934635B0400DD3E8934393FC53E353C54
:10391000F5368240110115BC0D3C8240110129B7DA
:10392000383901204400000002642F00711106C0E4
:103930005D378240110115BC84390120440000002C
:1039400002662A00711106C063500402453EF53A32
:10395000635004026536A139804091049C40910473
:103960009CC0824011018280CD32E35604FE79363C
:103970003D39804091049C4091049CC082401101DB
:10398000B5BE0000C43901204400000002662F00CB
:10399000711106C0635D04009536453A635D04000D
:1039A000B13E6532B93DD132824011018280713A17
:1039B000E35904FEA136513AA935893682401101F6
:1039C0006DB20000E0390120000000000232210049
:1039D0009C40D8401CC058C08044B1048280000084
:1039E000F83901200000000002324000F1145C4070
:1039F0009CC0004082800000303A0120440000005A
:103A00000364753C71112AC09C44984033B5E700AB
:103A1000DC4033B7A700898FB3B7870033E4E700F2
:103A20007D141344F4FFB1040245110182800000AB
:103A3000483A0120440000000364753E711106C03D
:103A40002932824011017DBF743A012044000000F8
:103A500002643C00511106C42AC22EC01355F44121
:103A6000CC40FD854537298C2D8CA24012458245DE
:103A7000310182808C3A01204400000002643E0043
:103A8000711106C0D93082401101E9B7A03A012076
:103A9000620000000364303C91047D848280000059
:103AA000BC3A0120420000000364303D9C40910478
:103AB0005D8C13341400330480408280E03A01208E
:103AC0004400000003643C3EDC403D8C9C40984434
:103AD000B98FB1045D8C133414007D148280000012
:103AE000043B01204400000002643D00DC403D8CAA
:103AF0009C409844B98FB1045D8C13341400330496
:103B000080408280503B01204300000007326C73EC
:103B1000686966741374F40371C8130704FE63497B
:103B20000700DC403394E700910423A00400828066
:103B3000DC4033978700D8C013070002018FB3D74A
:103B4000E7009840331487005D8C91048280000068
:103B5000A03B01204300000007327273686966745D
:103B60001374F40341C4130704FE634907009C4027
:103B7000B3D7E70091049CC0014482809C4033D7B6
:103B8000870098C013070002018FB397E700D84061
:103B9000335787005D8FD8C0804091048280000039
:103BA000F43B0120430000000832617273686966CB
:103BB00074001374F4031DC8130704FE634A07005E
:103BC0009C4013D4F741B3D7E74091049CC0828056
:103BD0009C4033D7874098C013070002018FB397EA
:103BE000E700D840335787005D8FD8C080409104EC
:103BF00082800000483C012000000000046D6F76C8
:103C0000650071112AC022879C40C040A10405CBE9
:103C10006307F40263ED87003A94BA970345F4FF13
:103C2000A38FA7FE7D14FD177D176DFB09A8034523
:103C300004002380A700050485077D176DFB8040E5
:103C40009104024511018280703C012000000000B7
:103C50000466696C6C0022879C40C040A10491C737
:103C60002300E4000504FD17E5FF804091048280F5
:103C7000F43C012020020000014000408280B72770
:103C8000040093873740611106C22AC03E85711136
:103C900022C080409104FD16EFF02F83F11480C004
:103CA00002441101EFD09F88930700803377F4001E
:103CB0006303F70011E7B787F0FFFD177D8D05A0BF
:103CC000856793870780E18F99C385673E94F114D8
:103CD00080C0FD777D8C13647443EFD01FFF856730
:103CE000FD17E18FD2073364F500924002452101B0
:103CF0006FD0BFFDA03D01202002000001219C40AB
:103D00001CC0C040A10482803727870013073702F8
:103D1000B727F70093873702611106C22AC0FD1644
:103D200091E63A851520EFE0FF9F19A83E85A2870E
:103D300080409CC0F11480C03D44EFD04FEF29205B
:103D40009240024521018280711106C093070080D4
:103D50003377F4006303F70011E7B787F0FFFD172F
:103D60007D8D05A0856793870780E18F99C385675F
:103D70003E94F11480C0FD777D8C13647473EFD092
:103D8000DFF49377F4019E075D8D85678117E18FDE
:103D90009583E6073364F500824011016FD0FFF28E
:103DA000BC3D012000000000022B21009C40184077
:103DB000BA971CC0C040A10482800000D83D0120F9
:103DC0002002000002684000035404008280B757BC
:103DD00004009387374045BDFC3D012020020000D0
:103DE0000868407369676E6564000314040082808C
:103DF000B71704009387374079B50000283E0120AB
:103E000020020000026821009C402310F400C04002
:103E1000A10482803717870013073702B717F7000E
:103E200093873702D5BD0000483E01200000000006
:103E300003682B219C4003570400BA972310F40019
:103E4000C040A10482800000643E012020020000E6
:103E500002634000034404008280B7470400938754
:103E6000374015B5883E01202002000008634073EA
:103E700069676E656400030404008280B70704006C
:103E80009387374009B50000B43E012020020000AE
:103E9000026321009C402300F400C040A104828002
:103EA0003707870013073702B707F70093873702F2
:103EB000A5B50000D43E01200000000003632B21C3
:103EC0009C4003470400BA972300F400C040A104BB
:103ED00082800000F03E012000000000046269734F
:103EE00021009C401840D98F1CC0C040A104828092
:103EF000103F0120000000000462696321009C4023
:103F000093C7F7FF1840F98F1CC0C040A1048280FE
:103F10002C3F01200000000004786F7221009C40BB
:103F20001840B98F1CC0C040A10482804C3F0120C2
:103F3000000000000462697440001C40804091044D
:103F40007D8C133414007D14828000006C3F0120AE
:103F5000000000000568626973219C40035704005B
:103F6000D98F2310F400C040A1048280903F01202B
:103F7000000000000568626963219C4093C7F7FF59
:103F800003570400F98F2310F400C040A10482807D
:103F9000B03F0120000000000568786F72219C404E
:103FA00003570400B98F2310F400C040A10482809D
:103FB000D03F01200000000005686269744083570B
:103FC0000400804091047D8C133414007D148280A1
:103FD000F03F0120000000000563626973219C40EE
:103FE00003470400D98F2300F400C040A10482805D
:103FF00014400120000000000563626963219C40B9
:1040000093C7F7FF03470400F98F2300F400C04073
:10401000A104828034400120000000000563786F15
:1040200072219C4003470400B98F2300F400C04074
:10403000A1048280544001200000000005636269F1
:10404000744083470400804091047D8C1334140035
:104050007D14828000500120FFFFFFFF182D2D2DC1
:1040600020466C6173682044696374696F6E617285
:1040700079202D2D2D0097C7FFFF9387277F73A0F1
:104080005730814037010080130141468141014290
:104090008142014381431304A002B704008093844A
:1040A000442601458145014681460147814737073E
:1040B0000080B70700809387C7521CC33707008072
:1040C000210797C7FFFF938727F41CC3F11480C013
:1040D00017C4FFFF130444F3B74300804C4093061A
:1040E000F0FF6389D50893F60510ADC2711122C0A7
:1040F0002104EFC0FFECEFD02FD883560400035506
:1041000024004205C98EB383D340024411019DA00F
:104110002F01000000000020330120242544240347
:104120006718907900000000073631098AA0422400
:10413000A031B00386209483010006000800001817
:10414000200A2E275F2D60285C2F293C93F6050856
:1041500095C2BD898A05B383B340F11480C02104A0
:10416000EFC01FE6EFD04FD1E114C0C023A0740010
:104170002E84413CEFD01FFC22858040910439DD24
:1041800037050080310500C180409104370500806B
:1041900041052320750037054020B755012013063F
:1041A000F0FF6307B50071151441E38CC6FE1105DD
:1041B000B7050080910588C1EFC0BF80EFC0BFCDBB
:1041C000464D6563726973702D5175696E747573B0
:1041D00020312E302E3020666F7220524953432DED
:1041E000562052563332494D43206F6E204869465F
:1041F0006976653142206279204D61747468696125
:1042000073204B6F63680A00370100801301414639
:10421000B704008093844426374700807117A9476C
:104220001CC337470080130707FD81471CC33707AE
:10423000008051071CC3374700801307C7FD1CC30C
:1042400037470080130747FD1CC3B70700809387DB
:1042500047465CC3F11480C01704000013048402B5
:10426000F11480C01144EFD01FF28040910409C4C2
:10427000EFD04FE76FE07FB0804091046FE03FAB3D
:10428000696E6974FFFFFFFFFFFFFFFFFFFFFFFF86
:10429000FFFFFFFFFFFFFFFFFFFFFFFFFFFFFFFF2E
:1042A000FFFFFFFFFFFFFFFFFFFFFFFFFFFFFFFF1E
:1042B000FFFFFFFFFFFFFFFFFFFFFFFFFFFFFFFF0E
:1042C000FFFFFFFFFFFFFFFFFFFFFFFFFFFFFFFFFE
:105000005050012000000000096E657874746F6BC9
:10501000656E711106C0EFC04FA8F11480C0133443
:10502000140033048040A28780409104638F0700FE
:10503000C040A104EFB03FE604206F6B2E00EFB03C
:10504000FFD0EFB09FC66FF01FFD8240110182803C
:105050006C51012050000000065B656C73655D00BB
:10506000711106C0F11480C0054465379C40E114FD
:10507000C0C09CC0EFB0BFE6045B69665D00EFB0E6
:105080003FC6711122C0804091049C40E114C0C011
:105090009CC0EFB0DFE4075B69666465665DEFB0F6
:1050A0003FC4F11480C0024411019C4091045D8C06
:1050B000711122C0804091049C40E114C0C09CC08A
:1050C000EFB0FFE1085B69666E6465665D00EFB096
:1050D0003FC1F11480C0024411019C4091045D8CD9
:1050E000A2878040910463870700C040A1040504A3
:1050F0006F00C0059C40E114C0C09CC0EFB03FDE13
:10510000065B656C73655D00EFB09FBDA287804054
:105110009104638F0700C040A1047D14F11480C086
:10512000A287804091046383070005046F0000029A
:10513000EFB0FFDA065B7468656E5D00EFB05FBAD2
:10514000A28780409104638307007D1419C0F11485
:1051500080C01334140033048040A287804091043F
:10516000E38507F08240110182800100885101200F
:1051700050000000065B7468656E5D00711106C02A
:105180008240110182800100B451012051000000D1
:10519000045B69665D00711106C0133414003304AA
:1051A0008040A2878040910463830700553D824080
:1051B00011018280F051012050000000075B6966F8
:1051C0006465665D711106C0EFC02F8DEFC0BFFB37
:1051D000804091041334140033048040A28780403F
:1051E000910463830700AD3D82401101828001007C
:1051F0002C52012050000000085B69666E646566F1
:105200005D00711106C0EFC04F89EFC0DFF780402D
:105210009104133414007D14A287804091046383A9
:1052200007003D3D82401101828001007052012043
:1052300000000000046C69737400711106C0EFB0C7
:10524000FFB0EFC0BFEBF11480C013048400EFB0D7
:10525000DFCFEFB01FB3EFC0FFEDA2878040910416
:10526000E38307FE804091048240110182800100A7
:1052700094520120810000000864697361736D2DF0
:105280002400F11480C037C4FF7F1344C4FB828024
:105290000000000024530120000000000D64697329
:1052A00061736D2D737472696E67711106C0F114AC
:1052B00080C0374400800324C4FBF11480C0035431
:1052C000040013743400F11480C00D449C40910418
:1052D0003D8C1334140033048040A2878040910435
:1052E000638E070013044400F11480C0EFB0FFC5C3
:1052F000EFB01FCD1304C4FF6F008001130424001E
:10530000F11480C0EFB07FC4EFB09FCB1304E4FF73
:1053100037470080232E87FA804091048240110194
:10532000828001009C54012000000000056E616D28
:10533000652E711106C0711122C080409104EFC02A
:10534000FFDBF11480C013048400F11480C0EFB0BF
:105350003FC7F11480C002449C4091043D8C13343B
:10536000140033048040A28780409104638C0700BE
:10537000EFB07FB20620202D2D3E2000EFB0FFBC05
:105380006F00800080409104EFC0DFDAA287804088
:105390009104E38807FA80409104F11480C002442C
:1053A0001101F11480C037F4FEDF134464E9A287D1
:1053B00080409104818F93B71700638C070280406F
:1053C0009104EFB05FAD0820202D2D3E20202E004F
:1053D000F11480C013442002EFB02FD7EFB07F9AB2
:1053E000E935F11480C013442002EFB00FD66F00EE
:1053F000800AF11480C037F4FEDF1344E4EDA28785
:1054000080409104818F93B71700638C070280401E
:105410009104EFB05FA80820202D2D3E20207300BE
:10542000F11480C013442002EFB02FD2EFB07F956B
:10543000AD3DF11480C013442002EFB00FD16F00D6
:105440008005F11480C037F4FEDF1344A4EBA2877B
:1054500080409104818F93B71700638C07028040CE
:105460009104EFB05FA30820202D2D3E2020630083
:10547000F11480C013442002EFB02FCDEFB07F9025
:105480002D35F11480C013442002EFB00FCC6F0013
:10549000800080409104824011018280CC54012020
:1054A0000000000003752E32711106C0F11480C097
:1054B0000144EFD07FC7EFD01FC4EFD0DFC3EFD0E0
:1054C000FFBAEFB05FAA824011018280045501202B
:1054D0000000000003752E34711106C0F11480C065
:1054E0000144EFD07FC4EFD01FC1EFD0DFC0EFD0B9
:1054F0009FC0EFD05FC0EFD07FB7EFB0DFA6824094
:10550000110182804C5501200000000003752E38E7
:10551000711106C0F11480C00144EFD0FFC0EFD07C
:105520009FBDEFD05FBDEFD01FBDEFD0DFBCEFD090
:105530009FBCEFD05FBCEFD01FBCEFD0DFBBEFD084
:10554000FFB2EFB05FA28240110182807C55012042
:105550000000000004752E6E7300711106C0F11476
:1055600080C00144EFD05FBCEFD01FB7EFD01FB0B9
:10557000EFB07F9F8240110182800100A055012081
:105580000000000006636F6E73742E00711106C078
:10559000EFB07F9002202300C93782401101828042
:1055A000BC5501200000000005616464722E711179
:1055B00006C0B93F824011018280010008560120D7
:1055C00000000000082E646563696D616C00711154
:1055D00006C0F11480C0374400800324C4FF711159
:1055E00022C080409104EFB06F80EFD0DFC1F11492
:1055F00080C00244110137470080232E87FE80407F
:105600009104824011018280685601200000000050
:105610000972656769737465722E711106C013741F
:10562000F401F11480C00144A28780409104818F6D
:1056300093B71700638B070080409104EFB0BF85DC
:10564000047A65726F006F00C001F11480C0EFB082
:105650009F840178EFA09FF90937EFA03FFA8040BF
:105660009104824011018280AC56012000000000AC
:1056700004696E737400711106C0F11480C0374460
:1056800000800324C4FBF11480C0130424000354DD
:10569000040013140401A28780409CC0035404003A
:1056A0009C4091045D8C824011018280D056012083
:1056B000000000000666756E63743300711106C049
:1056C0005D3F1354C4001374740082401101828042
:1056D000F0560120000000000666756E6374370006
:1056E000711106C0493F1354940182401101828018
:1056F0001057012000000000042E72733100711158
:1057000006C0953F1354F400093F82401101828086
:105710003057012000000000042E72733200711116
:1057200006C0913F13544401CD3D82401101828057
:105730005057012000000000032E7264711106C052
:105740001D3F13547400D13D82401101828001003D
:10575000705701200000000005696D6D5F697111CF
:1057600006C0113F13544441824011018280010060
:10577000A85701200000000005696D6D5F7371116D
:1057800006C0D53DB70700FE3374F40013544441FE
:10579000DD35135474001374F4019C4091045D8C46
:1057A00082401101828001000C580120000000009D
:1057B00006696D6D5F736200711106C06D3D135413
:1057C000340185673374F4007D3513544401137438
:1057D000047E9C4091045D8C793D135474001374D5
:1057E000E4019C4091045D8C793513144400FD77ED
:1057F00093C707803374F4009C4091045D8C1314AC
:105800003401135434418240110182802C5801200C
:105810000000000005696D6D5F75711106C0A13D46
:10582000FD773374F4008240110182809458012086
:105830000000000006696D6D5F756A00711106C099
:105840001D3D1354B400B70710003374F400253520
:10585000135444011374E47F9C4091045D8C213DFA
:1058600013549400FD7793C707803374F4009C4071
:1058700091045D8C0935B7F70F003374F4009C4038
:1058800091045D8C1314B4001354B4408240110190
:1058900082800100C45801208100000012646973F5
:1058A00061736D2D64657374696E6174696F6E00E8
:1058B000F11480C037C4FF7F134484FB8280000052
:1058C00000000100D8590120000000000B6469733A
:1058D00061736D2D6C6F6164711106C0C533F11475
:1058E00080C00144A28780409104818F93B7170044
:1058F000638C070080409104EFB0EFD9076C622001
:10590000202020206F00000BF11480C00544A287E6
:1059100080409104818F93B71700638C070080400B
:105920009104EFB04FD7076C6820202020206F0033
:105930006008F11480C00944A28780409104818FDF
:1059400093B71700638C070080409104EFB0AFD489
:10595000076C7720202020206F00C005F11480C044
:105960001144A28780409104818F93B71700638C04
:10597000070080409104EFB00FD2076C62752020C1
:1059800020206F002003F11480C01544A2878040BE
:105990009104818F93B71700638C070080409104B6
:1059A000EFB06FCF076C6875202020206F0080005B
:1059B000804091046133EFB00FCE022C20004533BC
:1059C000EFD07F84EFB02FCD0128153BEFB0AFCCE7
:1059D0000129824011018280B85B01200000000093
:1059E0001064697361736D2D696D6D6564696174AF
:1059F0006500711106C0A533D131F11480C0014496
:105A0000A28780409104818F93B71700638C0700B1
:105A100080409104EFB02FC80761646469202020A2
:105A20006F00A017F11480C00544A2878040910444
:105A3000818F93B71700638C070080409104EFB00B
:105A40008FC507736C6C692020206F000015F1145E
:105A500080C00944A28780409104818F93B71700CA
:105A6000638C070080409104EFB0EFC207736C7441
:105A7000692020206F006012F11480C00D44A287BD
:105A800080409104818F93B71700638C070080409A
:105A90009104EFB04FC007736C74697520206F00DC
:105AA000C00FF11480C01144A28780409104818FFF
:105AB00093B717006386070280409104EFB0AFBD33
:105AC00007786F7269202020F11480C0F11480C023
:105AD00037C4FF7F134484FBEFE06FC46F00E00B1B
:105AE000F11480C01544A28780409104818F93B740
:105AF00017006388070480409104B53E1354A40145
:105B0000F11480C041449C4091043D8C1334140036
:105B100033048040A28780409104638A0700EFB07D
:105B20008FB707737261692020206F000001EFB00A
:105B30008FB60773726C692020201374F4016F0014
:105B4000C005F11480C01944A28780409104818F60
:105B500093B71700638C070080409104EFB0AFB398
:105B6000076F7269202020206F002003F11480C08D
:105B70001D44A28780409104818F93B71700638CE6
:105B8000070080409104EFB00FB107616E64692097
:105B900020206F008000804091044D36EFB0AFAF01
:105BA000022C2000A93EEFB00FAF022C2000EFD056
:105BB0008FE5824011018280F45B0120000000002B
:105BC0000C64697361736D2D617569706300711187
:105BD00006C0EFB04FAC0761756970632020B93E15
:105BE000EFB06FAB022C20000D391D328240110145
:105BF00082800100B85C0120000000000C64697321
:105C000061736D2D73746F726500711106C07D3400
:105C1000F11480C00144A28780409104818F93B722
:105C20001700638C070080409104EFB0CFA6077384
:105C30006220202020206F00C005F11480C00544A0
:105C4000A28780409104818F93B71700638C07006F
:105C500080409104EFB02FA40773682020202020FB
:105C60006F002003F11480C00944A2878040910492
:105C7000818F93B71700638C070080409104EFB0C9
:105C80008FA107737720202020206F0080008040A4
:105C900091047134EFB02FA0022C2000CD34EFD04E
:105CA0008FD6EFB04F9F0128993CEFB0CF9E0129CE
:105CB00082401101828001002C6001200000000060
:105CC0000F64697361736D2D7265676973746572B2
:105CD000711106C03134F11480C005449C40910418
:105CE0003D8C1334140033048040A287804091041B
:105CF000638F0714E132F11480C00144A287804011
:105D00009104818F93B71700638C07008040910442
:105D1000EFB06F98076D756C202020206F00E012A7
:105D2000F11480C00544A28780409104818F93B70D
:105D30001700638C070080409104EFB0CF95076D8A
:105D4000756C682020206F004010F11480C0094459
:105D5000A28780409104818F93B71700638C07005E
:105D600080409104EFB02F93076D756C68737520B8
:105D70006F00A00DF11480C00D44A28780409104F3
:105D8000818F93B71700638C070080409104EFB0B8
:105D90008F90076D756C687520206F00000BF114F3
:105DA00080C01144A28780409104818F93B717006F
:105DB000638C070080409104EFB0EF8D0764697633
:105DC000202020206F006008F11480C01544A287B5
:105DD00080409104818F93B71700638C0700804047
:105DE0009104EFB04F8B07646976752020206F0017
:105DF000C005F11480C01944A28780409104818FAE
:105E000093B71700638C070080409104EFB0AF8810
:105E10000772656D202020206F002003F11480C0E0
:105E20001D44A28780409104818F93B71700638C33
:105E3000070080409104EFB00F860772656D7520F2
:105E400020206F008000804091046F00001CBD3056
:105E5000F11480C00144A28780409104818F93B7E0
:105E6000170063850704804091049D38F11480C0B9
:105E7000134400029C4091043D8C133414003304FD
:105E80008040A28780409104638A0700EFB0AF8012
:105E900007737562202020206F000001EFA0BFFF74
:105EA00007616464202020206F002016F11480C058
:105EB0000544A28780409104818F93B71700638CBB
:105EC000070080409104EFA01FFD07736C6C202039
:105ED00020206F008013F11480C00944A287804005
:105EE0009104818F93B71700638C07008040910461
:105EF000EFA07FFA07736C74202020206F00E01061
:105F0000F11480C00D44A28780409104818F93B723
:105F10001700638C070080409104EFA0DFF7077340
:105F20006C74752020206F00400EF11480C0114465
:105F3000A28780409104818F93B71700638C07007C
:105F400080409104EFA03FF507786F722020202059
:105F50006F00A00BF11480C01544A287804091040B
:105F6000818F93B717006386070480409104EFF098
:105F70002FF7F11480C0134400029C4091043D8C23
:105F80001334140033048040A28780409104638A54
:105F90000700EFA05FF007737261202020206F00E0
:105FA0000001EFA05FEF0773726C202020206F00CC
:105FB000C005F11480C01944A28780409104818FEC
:105FC00093B71700638C070080409104EFA0BFECEB
:105FD000076F7220202020206F002003F11480C062
:105FE0001D44A28780409104818F93B71700638C72
:105FF000070080409104EFA01FEA07616E64202033
:1060000020206F00800080409104EFF02FF3EFA07C
:106010009FE8022C2000EFF08FEEEFA0DFE7022CCC
:106020002000EFF0CFEF8240110182807C600120E0
:10603000000000000A64697361736D2D6C7569005E
:10604000711106C0EFA03FE5076C75692020202084
:10605000EFF0CFEEEFA03FE4022C2000EFF0EFFBDB
:10606000EFF00FCBEFF06FFB37470080232C87FA60
:10607000804091048240110182800100D46101209E
:10608000000000000D64697361736D2D6272616EB2
:106090006368711106C0EFF06FE2F11480C0014433
:1060A000A28780409104818F93B71700638C07000B
:1060B00080409104EFA03FDE076265712020202020
:1060C0006F00A00DF11480C00544A28780409104A8
:1060D000818F93B71700638C070080409104EFA075
:1060E0009FDB07626E65202020206F00000BF114FB
:1060F00080C01144A28780409104818F93B717001C
:10610000638C070080409104EFA0FFD807626C7495
:10611000202020206F006008F11480C01544A28761
:1061200080409104818F93B71700638C07008040F3
:106130009104EFA05FD607626765202020206F00E2
:10614000C005F11480C01944A28780409104818F5A
:1061500093B71700638C070080409104EFA0BFD372
:1061600007626C74752020206F002003F11480C03A
:106170001D44A28780409104818F93B71700638CE0
:10618000070080409104EFA01FD10762676575206A
:1061900020206F00800080409104EFF04FD6EFA0E8
:1061A0009FCF022C2000EFF08FD7EFA0DFCE022C84
:1061B0002000F11480C0374400800324C4FBEFF0BA
:1061C000AFDF9C4091043E94EFF08FB48240110108
:1061D0008280010068620120000000000B64697386
:1061E00061736D2D6A616C72711106C0EFA0BFCA38
:1061F000076A616C72202020EFF04FD4EFA0BFC976
:10620000022C2000EFF0AFD5EFC0FFFFEFA0BFC81A
:106210000128EFF0CFCEEFA01FC80129EFF0AFC5E6
:106220001354F4001374F401F11480C03D449C40F5
:1062300091043D8C1334140033048040A2878040C5
:106240009104638F0700F11480C037440080032459
:1062500084FBEFF0CFD09C4091043E94EFF06F8D23
:106260008240110182800100C06201200000000014
:106270000A64697361736D2D6A616C00711106C0E7
:10628000EFA07FC1076A616C20202020EFF00FCBC8
:10629000EFA07FC0022C2000F11480C037440080A2
:1062A0000324C4FBEFF08FD99C4091043E94F11479
:1062B00080C0EFF0EFA5EFF0CF8782401101828020
:1062C0001C650120000000000D64697361736D2D71
:1062D00073797374656D711106C0EFF02FBE19C02C
:1062E000F11480C0A2878040910463800716F114E6
:1062F00080C00544A28780409104818F93B7170026
:10630000638C070080409104EFA0FFB807637372AD
:10631000727720206F00A00DF11480C00944A2877D
:1063200080409104818F93B71700638C07008040F1
:106330009104EFA05FB607637372727320206F0041
:10634000000BF11480C00D44A28780409104818F1E
:1063500093B71700638C070080409104EFA0BFB390
:1063600007637372726320206F006008F11480C0AD
:106370001544A28780409104818F93B71700638CE6
:10638000070080409104EFA01FB10763737272771A
:1063900069206F00C005F11480C01944A2878040B5
:1063A0009104818F93B71700638C0700804091049C
:1063B000EFA07FAE07637372727369206F002003D2
:1063C000F11480C01D44A28780409104818F93B74F
:1063D0001700638C070080409104EFA0DFAB0763D8
:1063E0007372726369206F00800080409104EFF047
:1063F000EFB4EFA05FAA022C2000EFF0CFA7135458
:106400004401EFF06F8DEFA01FA9022C2000EFF0E8
:10641000EFAAF11480C015449C40910433B4870066
:1064200033048040A2878040910463860700EFF028
:106430000FAD6F004001EFF00FA41354F40013747C
:10644000F401EFF06F866F00E00CEFF0CFA2135471
:106450004401F11480C00144A28780409104818FDF
:1064600093B71700638B070080409104EFA0BFA291
:10647000056563616C6C6F00E009F11480C0054430
:10648000A28780409104818F93B71700638C070027
:1064900080409104EFA03FA00665627265616B00C9
:1064A0006F004007F11480C013445010A287804051
:1064B0009104818F93B71700638A0700804091048D
:1064C000EFA07F9D037766696F00C004F11480C060
:1064D00013442030A28780409104818F93B7170026
:1064E000638B070080409104EFA0FF9A046D7265F2
:1064F00074006F002002EFA01F9A15556E6B6E6F2F
:10650000776E2073797374656D206F70636F646547
:106510008040910482401101828001004865012081
:1065200000000000087276632D696E7374007111AB
:1065300006C0F11480C0374400800324C4FB035418
:1065400004008240110182806C650120000000007F
:10655000097276632D66756E6333711106C0C13F93
:106560001354D400824011018280010094650120FF
:1065700000000000087276632D7265672E007111AD
:1065800006C01374740013048400EFF00F89824076
:1065900011018280D06501200000000007696D6D47
:1065A0005F637373711106C0593713547400137409
:1065B000340013146400A53F135494001374F400C2
:1065C000131424009C4091045D8C82401101828050
:1065D000206601200000000007696D6D5F63736C29
:1065E000711106C0A9371354C40013741400131496
:1065F0005400353F13542400137434001314640002
:106600009C4091045D8C253713544400137474002E
:10661000131424009C4091045D8C824011018280FF
:10662000586601200000000006696D6D5F6375000B
:10663000711106C0ED3D135424001374F401C53DDF
:106640001354C40013741400131454009C40910498
:106650005D8C82401101828098660120000000005C
:1066600005696D6D5F63711106C0D1351354240047
:106670001374F4016D3D1354C40013741400131407
:1066800054009C4091045D8C1314A4011354A44144
:106690008240110182800100EC66012000000000B0
:1066A00009696D6D5F636C777377711106C0413551
:1066B0001354540013741400131464008D3D1354C8
:1066C000640013741400131424009C4091045D8C26
:1066D000B93D1354A40013747400131434009C4087
:1066E00091045D8C8240110182800100A867012025
:1066F0000000000006696D6D5F636A00711106C0DD
:106700003D3513542400137414001314540005353C
:106710001354340013747400131414009C40910437
:106720005D8C313513546400137414001314740019
:106730009C4091045D8CE53B135474001374140069
:10674000131464009C4091045D8CD5331354840071
:10675000137414001314A4009C4091045D8CC13B7D
:106760001354940013743400131484009C40910457
:106770005D8C753B1354B40013741400131444005F
:106780009C4091045D8C65331354C4001374140051
:106790001314B4009C4091045D8C131444011354F1
:1067A00044418240110182802868012000000000DD
:1067B00006696D6D5F636200711106C08D3B1354F5
:1067C000240013741400131454009533135434002C
:1067D00013743400131414009C4091045D8C813BAD
:1067E0001354540013743400131464009C40910437
:1067F0005D8C353B1354A40013743400131434001F
:106800009C4091045D8C25331354C4001374140010
